{
  "_format": "hh-sol-artifact-1",
  "contractName": "Arkius",
  "sourceName": "contracts/Arkius.sol",
  "abi": [
    {
      "inputs": [
        {
          "internalType": "uint256",
          "name": "_initialSupply",
          "type": "uint256"
        }
      ],
      "stateMutability": "nonpayable",
      "type": "constructor"
    },
    {
      "anonymous": false,
      "inputs": [
        {
          "indexed": true,
          "internalType": "address",
          "name": "owner",
          "type": "address"
        },
        {
          "indexed": true,
          "internalType": "address",
          "name": "spender",
          "type": "address"
        },
        {
          "indexed": false,
          "internalType": "uint256",
          "name": "value",
          "type": "uint256"
        }
      ],
      "name": "Approval",
      "type": "event"
    },
    {
      "anonymous": false,
      "inputs": [
        {
          "indexed": true,
          "internalType": "address",
          "name": "from",
          "type": "address"
        },
        {
          "indexed": true,
          "internalType": "address",
          "name": "to",
          "type": "address"
        },
        {
          "indexed": false,
          "internalType": "uint256",
          "name": "value",
          "type": "uint256"
        }
      ],
      "name": "Transfer",
      "type": "event"
    },
    {
      "inputs": [
        {
          "internalType": "address",
          "name": "owner",
          "type": "address"
        },
        {
          "internalType": "address",
          "name": "spender",
          "type": "address"
        }
      ],
      "name": "allowance",
      "outputs": [
        {
          "internalType": "uint256",
          "name": "",
          "type": "uint256"
        }
      ],
      "stateMutability": "view",
      "type": "function"
    },
    {
      "inputs": [
        {
          "internalType": "address",
          "name": "spender",
          "type": "address"
        },
        {
          "internalType": "uint256",
          "name": "amount",
          "type": "uint256"
        }
      ],
      "name": "approve",
      "outputs": [
        {
          "internalType": "bool",
          "name": "",
          "type": "bool"
        }
      ],
      "stateMutability": "nonpayable",
      "type": "function"
    },
    {
      "inputs": [
        {
          "internalType": "address",
          "name": "owner",
          "type": "address"
        },
        {
          "internalType": "address",
          "name": "spender",
          "type": "address"
        },
        {
          "internalType": "uint256",
          "name": "amount",
          "type": "uint256"
        }
      ],
      "name": "approveFromContract",
      "outputs": [
        {
          "internalType": "bool",
          "name": "",
          "type": "bool"
        }
      ],
      "stateMutability": "nonpayable",
      "type": "function"
    },
    {
      "inputs": [
        {
          "internalType": "address",
          "name": "spender",
          "type": "address"
        },
        {
          "internalType": "uint256",
          "name": "amount",
          "type": "uint256"
        }
      ],
      "name": "approveToken",
      "outputs": [
        {
          "internalType": "bool",
          "name": "",
          "type": "bool"
        }
      ],
      "stateMutability": "nonpayable",
      "type": "function"
    },
    {
      "inputs": [
        {
          "internalType": "address",
          "name": "_owner",
          "type": "address"
        },
        {
          "internalType": "address",
          "name": "spender",
          "type": "address"
        },
        {
          "internalType": "uint256",
          "name": "amount",
          "type": "uint256"
        }
      ],
      "name": "approveToken",
      "outputs": [
        {
          "internalType": "bool",
          "name": "",
          "type": "bool"
        }
      ],
      "stateMutability": "nonpayable",
      "type": "function"
    },
    {
      "inputs": [
        {
          "internalType": "address",
          "name": "account",
          "type": "address"
        }
      ],
      "name": "balanceOf",
      "outputs": [
        {
          "internalType": "uint256",
          "name": "",
          "type": "uint256"
        }
      ],
      "stateMutability": "view",
      "type": "function"
    },
    {
      "inputs": [
        {
          "internalType": "address",
          "name": "account",
          "type": "address"
        }
      ],
      "name": "balanceOfUnlockToken",
      "outputs": [
        {
          "internalType": "uint256",
          "name": "",
          "type": "uint256"
        }
      ],
      "stateMutability": "view",
      "type": "function"
    },
    {
      "inputs": [],
      "name": "decimals",
      "outputs": [
        {
          "internalType": "uint8",
          "name": "",
          "type": "uint8"
        }
      ],
      "stateMutability": "view",
      "type": "function"
    },
    {
      "inputs": [
        {
          "internalType": "address",
          "name": "spender",
          "type": "address"
        },
        {
          "internalType": "uint256",
          "name": "subtractedValue",
          "type": "uint256"
        }
      ],
      "name": "decreaseAllowance",
      "outputs": [
        {
          "internalType": "bool",
          "name": "",
          "type": "bool"
        }
      ],
      "stateMutability": "nonpayable",
      "type": "function"
    },
    {
      "inputs": [],
      "name": "getOwner",
      "outputs": [
        {
          "internalType": "address",
          "name": "",
          "type": "address"
        }
      ],
      "stateMutability": "view",
      "type": "function"
    },
    {
      "inputs": [
        {
          "internalType": "address",
          "name": "_owner",
          "type": "address"
        }
      ],
      "name": "getblance",
      "outputs": [
        {
          "internalType": "uint256",
          "name": "",
          "type": "uint256"
        }
      ],
      "stateMutability": "view",
      "type": "function"
    },
    {
      "inputs": [
        {
          "internalType": "address",
          "name": "spender",
          "type": "address"
        },
        {
          "internalType": "uint256",
          "name": "addedValue",
          "type": "uint256"
        }
      ],
      "name": "increaseAllowance",
      "outputs": [
        {
          "internalType": "bool",
          "name": "",
          "type": "bool"
        }
      ],
      "stateMutability": "nonpayable",
      "type": "function"
    },
    {
      "inputs": [
        {
          "internalType": "address",
          "name": "spender",
          "type": "address"
        },
        {
          "internalType": "uint256",
          "name": "amount",
          "type": "uint256"
        }
      ],
      "name": "increaseTokenAllowance",
      "outputs": [
        {
          "internalType": "bool",
          "name": "",
          "type": "bool"
        }
      ],
      "stateMutability": "nonpayable",
      "type": "function"
    },
    {
      "inputs": [
        {
          "internalType": "uint256",
          "name": "moreSupply",
          "type": "uint256"
        }
      ],
      "name": "mint",
      "outputs": [],
      "stateMutability": "nonpayable",
      "type": "function"
    },
    {
      "inputs": [],
      "name": "name",
      "outputs": [
        {
          "internalType": "string",
          "name": "",
          "type": "string"
        }
      ],
      "stateMutability": "view",
      "type": "function"
    },
    {
      "inputs": [],
      "name": "owner",
      "outputs": [
        {
          "internalType": "address",
          "name": "",
          "type": "address"
        }
      ],
      "stateMutability": "view",
      "type": "function"
    },
    {
      "inputs": [],
      "name": "price",
      "outputs": [
        {
          "internalType": "uint256",
          "name": "",
          "type": "uint256"
        }
      ],
      "stateMutability": "view",
      "type": "function"
    },
    {
      "inputs": [],
      "name": "scal",
      "outputs": [
        {
          "internalType": "uint256",
          "name": "",
          "type": "uint256"
        }
      ],
      "stateMutability": "view",
      "type": "function"
    },
    {
      "inputs": [],
      "name": "symbol",
      "outputs": [
        {
          "internalType": "string",
          "name": "",
          "type": "string"
        }
      ],
      "stateMutability": "view",
      "type": "function"
    },
    {
      "inputs": [],
      "name": "total",
      "outputs": [
        {
          "internalType": "uint256",
          "name": "",
          "type": "uint256"
        }
      ],
      "stateMutability": "view",
      "type": "function"
    },
    {
      "inputs": [],
      "name": "totalSupply",
      "outputs": [
        {
          "internalType": "uint256",
          "name": "",
          "type": "uint256"
        }
      ],
      "stateMutability": "view",
      "type": "function"
    },
    {
      "inputs": [
        {
          "internalType": "address",
          "name": "recipient",
          "type": "address"
        },
        {
          "internalType": "uint256",
          "name": "amount",
          "type": "uint256"
        }
      ],
      "name": "transfer",
      "outputs": [
        {
          "internalType": "bool",
          "name": "",
          "type": "bool"
        }
      ],
      "stateMutability": "nonpayable",
      "type": "function"
    },
    {
      "inputs": [
        {
          "internalType": "address",
          "name": "recipient",
          "type": "address"
        },
        {
          "internalType": "uint256",
          "name": "amount",
          "type": "uint256"
        }
      ],
      "name": "transferAsLockToken",
      "outputs": [
        {
          "internalType": "bool",
          "name": "",
          "type": "bool"
        }
      ],
      "stateMutability": "nonpayable",
      "type": "function"
    },
    {
      "inputs": [
        {
          "internalType": "address",
          "name": "recipient",
          "type": "address"
        },
        {
          "internalType": "uint256",
          "name": "amount",
          "type": "uint256"
        }
      ],
      "name": "transferAsUnlockToken",
      "outputs": [
        {
          "internalType": "bool",
          "name": "",
          "type": "bool"
        }
      ],
      "stateMutability": "nonpayable",
      "type": "function"
    },
    {
      "inputs": [
        {
          "internalType": "address",
          "name": "sender",
          "type": "address"
        },
        {
          "internalType": "address",
          "name": "recipient",
          "type": "address"
        },
        {
          "internalType": "uint256",
          "name": "amount",
          "type": "uint256"
        }
      ],
      "name": "transferFrom",
      "outputs": [
        {
          "internalType": "bool",
          "name": "",
          "type": "bool"
        }
      ],
      "stateMutability": "nonpayable",
      "type": "function"
    },
    {
      "inputs": [
        {
          "internalType": "address",
          "name": "sender",
          "type": "address"
        },
        {
          "internalType": "address",
          "name": "recipient",
          "type": "address"
        },
        {
          "internalType": "address",
          "name": "contrectAddress",
          "type": "address"
        },
        {
          "internalType": "uint256",
          "name": "amount",
          "type": "uint256"
        }
      ],
      "name": "transferFromContrect",
      "outputs": [
        {
          "internalType": "bool",
          "name": "",
          "type": "bool"
        }
      ],
      "stateMutability": "nonpayable",
      "type": "function"
    },
    {
      "inputs": [],
      "name": "transferTo",
      "outputs": [
        {
          "internalType": "address",
          "name": "",
          "type": "address"
        }
      ],
      "stateMutability": "view",
      "type": "function"
    },
    {
      "inputs": [
        {
          "internalType": "address",
          "name": "recipient",
          "type": "address"
        },
        {
          "internalType": "uint256",
          "name": "amount",
          "type": "uint256"
        }
      ],
      "name": "transferToken",
      "outputs": [
        {
          "internalType": "bool",
          "name": "",
          "type": "bool"
        }
      ],
      "stateMutability": "nonpayable",
      "type": "function"
    },
    {
      "inputs": [
        {
          "internalType": "address",
          "name": "contractAddress",
          "type": "address"
        },
        {
          "internalType": "address",
          "name": "sender",
          "type": "address"
        },
        {
          "internalType": "uint256",
          "name": "amount",
          "type": "uint256"
        }
      ],
      "name": "transferTokenAfterSell",
      "outputs": [
        {
          "internalType": "bool",
          "name": "",
          "type": "bool"
        }
      ],
      "stateMutability": "nonpayable",
      "type": "function"
    },
    {
      "inputs": [
        {
          "internalType": "address",
          "name": "recipient",
          "type": "address"
        },
        {
          "internalType": "address",
          "name": "spender",
          "type": "address"
        },
        {
          "internalType": "uint256",
          "name": "amount",
          "type": "uint256"
        }
      ],
      "name": "transferTokenFrom",
      "outputs": [
        {
          "internalType": "bool",
          "name": "",
          "type": "bool"
        }
      ],
      "stateMutability": "nonpayable",
      "type": "function"
    },
    {
      "inputs": [
        {
          "internalType": "address",
          "name": "sender",
          "type": "address"
        },
        {
          "internalType": "address",
          "name": "recipient",
          "type": "address"
        },
        {
          "internalType": "address",
          "name": "conterctAddress",
          "type": "address"
        },
        {
          "internalType": "uint256",
          "name": "amount",
          "type": "uint256"
        }
      ],
      "name": "transferTokenFromContrect",
      "outputs": [
        {
          "internalType": "bool",
          "name": "",
          "type": "bool"
        }
      ],
      "stateMutability": "nonpayable",
      "type": "function"
    },
    {
      "inputs": [
        {
          "internalType": "address",
          "name": "contractAddress",
          "type": "address"
        },
        {
          "internalType": "address",
          "name": "sender",
          "type": "address"
        },
        {
          "internalType": "uint256",
          "name": "amount",
          "type": "uint256"
        }
      ],
      "name": "transferTokenSell",
      "outputs": [
        {
          "internalType": "bool",
          "name": "",
          "type": "bool"
        }
      ],
      "stateMutability": "nonpayable",
      "type": "function"
    }
  ],
  "bytecode": "0x6080604052670de0b6b3a76400006008553480156200001d57600080fd5b506040516200276438038062002764833981810160405281019062000043919062000387565b6040518060400160405280600b81526020017f41726b697573546f6b656e0000000000000000000000000000000000000000008152506040518060400160405280600381526020017f41524b00000000000000000000000000000000000000000000000000000000008152508160049080519060200190620000c7929190620002c0565b508060059080519060200190620000e0929190620002c0565b505050620000f533826200013d60201b60201c565b33600760006101000a81548173ffffffffffffffffffffffffffffffffffffffff021916908373ffffffffffffffffffffffffffffffffffffffff1602179055505062000584565b600073ffffffffffffffffffffffffffffffffffffffff168273ffffffffffffffffffffffffffffffffffffffff161415620001b0576040517f08c379a0000000000000000000000000000000000000000000000000000000008152600401620001a790620003f1565b60405180910390fd5b620001c460008383620002b660201b60201c565b8060036000828254620001d8919062000441565b92505081905550806000808473ffffffffffffffffffffffffffffffffffffffff1673ffffffffffffffffffffffffffffffffffffffff16815260200190815260200160002060008282546200022f919062000441565b925050819055508173ffffffffffffffffffffffffffffffffffffffff16600073ffffffffffffffffffffffffffffffffffffffff167fddf252ad1be2c89b69c2b068fc378daa952ba7f163c4a11628f55a4df523b3ef8360405162000296919062000413565b60405180910390a3620002b260008383620002bb60201b60201c565b5050565b505050565b505050565b828054620002ce90620004a8565b90600052602060002090601f016020900481019282620002f257600085556200033e565b82601f106200030d57805160ff19168380011785556200033e565b828001600101855582156200033e579182015b828111156200033d57825182559160200191906001019062000320565b5b5090506200034d919062000351565b5090565b5b808211156200036c57600081600090555060010162000352565b5090565b60008151905062000381816200056a565b92915050565b600060208284031215620003a0576200039f6200053c565b5b6000620003b08482850162000370565b91505092915050565b6000620003c8601f8362000430565b9150620003d58262000541565b602082019050919050565b620003eb816200049e565b82525050565b600060208201905081810360008301526200040c81620003b9565b9050919050565b60006020820190506200042a6000830184620003e0565b92915050565b600082825260208201905092915050565b60006200044e826200049e565b91506200045b836200049e565b9250827fffffffffffffffffffffffffffffffffffffffffffffffffffffffffffffffff03821115620004935762000492620004de565b5b828201905092915050565b6000819050919050565b60006002820490506001821680620004c157607f821691505b60208210811415620004d857620004d76200050d565b5b50919050565b7f4e487b7100000000000000000000000000000000000000000000000000000000600052601160045260246000fd5b7f4e487b7100000000000000000000000000000000000000000000000000000000600052602260045260246000fd5b600080fd5b7f45524332303a206d696e7420746f20746865207a65726f206164647265737300600082015250565b62000575816200049e565b81146200058157600080fd5b50565b6121d080620005946000396000f3fe608060405234801561001057600080fd5b50600436106101f05760003560e01c8063791c87601161010f578063a9059cbb116100a2578063dd62ed3e11610071578063dd62ed3e1461066d578063ea3d5ea11461069d578063f10fec06146106cd578063fd9b853d146106fd576101f0565b8063a9059cbb146105bf578063ad221195146105ef578063bed2cc921461061f578063da3e33971461063d576101f0565b806395d89b41116100de57806395d89b4114610537578063a035b1fe14610555578063a0712d6814610573578063a457c2d71461058f576101f0565b8063791c87601461049b57806385e6314d146104cb578063893d20e8146104fb5780638da5cb5b14610519576101f0565b80632ddbd13a116101875780633a8020d2116101565780633a8020d2146103db57806345c056c51461040b57806370a082311461043b57806372862fc31461046b576101f0565b80632ddbd13a1461033f578063307c447d1461035d578063313ce5671461038d57806339509351146103ab576101f0565b80631072cbea116101c35780631072cbea146102a357806318160ddd146102d35780631ab5d260146102f157806323b872dd1461030f576101f0565b8063022fc88b146101f5578063065da5221461022557806306fdde0314610255578063095ea7b314610273575b600080fd5b61020f600480360381019061020a91906119f2565b61072d565b60405161021c9190611c07565b60405180910390f35b61023f600480360381019061023a9190611938565b610741565b60405161024c9190611c07565b60405180910390f35b61025d610759565b60405161026a9190611c22565b60405180910390f35b61028d600480360381019061028891906119f2565b6107eb565b60405161029a9190611c07565b60405180910390f35b6102bd60048036038101906102b891906119f2565b610809565b6040516102ca9190611c07565b60405180910390f35b6102db61081d565b6040516102e89190611d44565b60405180910390f35b6102f9610827565b6040516103069190611bec565b60405180910390f35b6103296004803603810190610324919061199f565b61082f565b6040516103369190611c07565b60405180910390f35b610347610927565b6040516103549190611d44565b60405180910390f35b610377600480360381019061037291906119f2565b610936565b6040516103849190611c07565b60405180910390f35b61039561094a565b6040516103a29190611d5f565b60405180910390f35b6103c560048036038101906103c091906119f2565b610953565b6040516103d29190611c07565b60405180910390f35b6103f560048036038101906103f09190611938565b6109ff565b6040516104029190611c07565b60405180910390f35b610425600480360381019061042091906118cb565b610aea565b6040516104329190611d44565b60405180910390f35b610455600480360381019061045091906118cb565b610afc565b6040516104629190611d44565b60405180910390f35b6104856004803603810190610480919061199f565b610b44565b6040516104929190611c07565b60405180910390f35b6104b560048036038101906104b0919061199f565b610b5a565b6040516104c29190611c07565b60405180910390f35b6104e560048036038101906104e091906119f2565b610b72565b6040516104f29190611c07565b60405180910390f35b610503610b8c565b6040516105109190611bec565b60405180910390f35b610521610bb6565b60405161052e9190611bec565b60405180910390f35b61053f610bdc565b60405161054c9190611c22565b60405180910390f35b61055d610c6e565b60405161056a9190611d44565b60405180910390f35b61058d60048036038101906105889190611a32565b610c74565b005b6105a960048036038101906105a491906119f2565b610c81565b6040516105b69190611c07565b60405180910390f35b6105d960048036038101906105d491906119f2565b610d6c565b6040516105e69190611c07565b60405180910390f35b6106096004803603810190610604919061199f565b610d8a565b6040516106169190611c07565b60405180910390f35b610627610da0565b6040516106349190611d44565b60405180910390f35b6106576004803603810190610652919061199f565b610da6565b6040516106649190611c07565b60405180910390f35b610687600480360381019061068291906118f8565b610dbc565b6040516106949190611d44565b60405180910390f35b6106b760048036038101906106b291906119f2565b610e43565b6040516106c49190611c07565b60405180910390f35b6106e760048036038101906106e2919061199f565b610e5d565b6040516106f49190611c07565b60405180910390f35b610717600480360381019061071291906118cb565b610e75565b6040516107249190611d44565b60405180910390f35b600061073983836107eb565b905092915050565b600061074f858585856109ff565b9050949350505050565b60606004805461076890611e74565b80601f016020809104026020016040519081016040528092919081815260200182805461079490611e74565b80156107e15780601f106107b6576101008083540402835291602001916107e1565b820191906000526020600020905b8154815290600101906020018083116107c457829003601f168201915b5050505050905090565b60006107ff6107f8610ebe565b8484610ec6565b6001905092915050565b60006108158383610d6c565b905092915050565b6000600354905090565b600030905090565b600061083c848484611091565b6000600260008673ffffffffffffffffffffffffffffffffffffffff1673ffffffffffffffffffffffffffffffffffffffff1681526020019081526020016000206000610887610ebe565b73ffffffffffffffffffffffffffffffffffffffff1673ffffffffffffffffffffffffffffffffffffffff16815260200190815260200160002054905082811015610907576040517f08c379a00000000000000000000000000000000000000000000000000000000081526004016108fe90611ca4565b60405180910390fd5b61091b85610913610ebe565b858403610ec6565b60019150509392505050565b600061093161081d565b905090565b60006109428383610953565b905092915050565b60006012905090565b60006109f5610960610ebe565b84846002600061096e610ebe565b73ffffffffffffffffffffffffffffffffffffffff1673ffffffffffffffffffffffffffffffffffffffff16815260200190815260200160002060008873ffffffffffffffffffffffffffffffffffffffff1673ffffffffffffffffffffffffffffffffffffffff168152602001908152602001600020546109f09190611d96565b610ec6565b6001905092915050565b6000610a0c858584611312565b6000600260008773ffffffffffffffffffffffffffffffffffffffff1673ffffffffffffffffffffffffffffffffffffffff16815260200190815260200160002060008573ffffffffffffffffffffffffffffffffffffffff1673ffffffffffffffffffffffffffffffffffffffff16815260200190815260200160002054905082811015610ad0576040517f08c379a0000000000000000000000000000000000000000000000000000000008152600401610ac790611ca4565b60405180910390fd5b610add8685858403610ec6565b6001915050949350505050565b6000610af582610afc565b9050919050565b60008060008373ffffffffffffffffffffffffffffffffffffffff1673ffffffffffffffffffffffffffffffffffffffff168152602001908152602001600020549050919050565b6000610b51848484610b5a565b90509392505050565b6000610b67848484611524565b600190509392505050565b6000610b86610b7f610ebe565b8484611524565b92915050565b6000600760009054906101000a900473ffffffffffffffffffffffffffffffffffffffff16905090565b600760009054906101000a900473ffffffffffffffffffffffffffffffffffffffff1681565b606060058054610beb90611e74565b80601f0160208091040260200160405190810160405280929190818152602001828054610c1790611e74565b8015610c645780601f10610c3957610100808354040283529160200191610c64565b820191906000526020600020905b815481529060010190602001808311610c4757829003601f168201915b5050505050905090565b60065481565b610c7e3382611737565b50565b60008060026000610c90610ebe565b73ffffffffffffffffffffffffffffffffffffffff1673ffffffffffffffffffffffffffffffffffffffff16815260200190815260200160002060008573ffffffffffffffffffffffffffffffffffffffff1673ffffffffffffffffffffffffffffffffffffffff16815260200190815260200160002054905082811015610d4d576040517f08c379a0000000000000000000000000000000000000000000000000000000008152600401610d4490611d04565b60405180910390fd5b610d61610d58610ebe565b85858403610ec6565b600191505092915050565b6000610d80610d79610ebe565b8484611091565b6001905092915050565b6000610d9784848461082f565b90509392505050565b60085481565b6000610db3848484610e5d565b90509392505050565b6000600260008473ffffffffffffffffffffffffffffffffffffffff1673ffffffffffffffffffffffffffffffffffffffff16815260200190815260200160002060008373ffffffffffffffffffffffffffffffffffffffff1673ffffffffffffffffffffffffffffffffffffffff16815260200190815260200160002054905092915050565b6000610e57610e50610ebe565b8484611312565b92915050565b6000610e6a848484610ec6565b600190509392505050565b6000600160008373ffffffffffffffffffffffffffffffffffffffff1673ffffffffffffffffffffffffffffffffffffffff168152602001908152602001600020549050919050565b600033905090565b600073ffffffffffffffffffffffffffffffffffffffff168373ffffffffffffffffffffffffffffffffffffffff161415610f36576040517f08c379a0000000000000000000000000000000000000000000000000000000008152600401610f2d90611ce4565b60405180910390fd5b600073ffffffffffffffffffffffffffffffffffffffff168273ffffffffffffffffffffffffffffffffffffffff161415610fa6576040517f08c379a0000000000000000000000000000000000000000000000000000000008152600401610f9d90611c64565b60405180910390fd5b80600260008573ffffffffffffffffffffffffffffffffffffffff1673ffffffffffffffffffffffffffffffffffffffff16815260200190815260200160002060008473ffffffffffffffffffffffffffffffffffffffff1673ffffffffffffffffffffffffffffffffffffffff168152602001908152602001600020819055508173ffffffffffffffffffffffffffffffffffffffff168373ffffffffffffffffffffffffffffffffffffffff167f8c5be1e5ebec7d5bd14f71427d1e84f3dd0314c0f7b2291e5b200ac8c7c3b925836040516110849190611d44565b60405180910390a3505050565b600073ffffffffffffffffffffffffffffffffffffffff168373ffffffffffffffffffffffffffffffffffffffff161415611101576040517f08c379a00000000000000000000000000000000000000000000000000000000081526004016110f890611cc4565b60405180910390fd5b600073ffffffffffffffffffffffffffffffffffffffff168273ffffffffffffffffffffffffffffffffffffffff161415611171576040517f08c379a000000000000000000000000000000000000000000000000000000000815260040161116890611c44565b60405180910390fd5b61117c838383611897565b60008060008573ffffffffffffffffffffffffffffffffffffffff1673ffffffffffffffffffffffffffffffffffffffff16815260200190815260200160002054905081811015611202576040517f08c379a00000000000000000000000000000000000000000000000000000000081526004016111f990611c84565b60405180910390fd5b8181036000808673ffffffffffffffffffffffffffffffffffffffff1673ffffffffffffffffffffffffffffffffffffffff16815260200190815260200160002081905550816000808573ffffffffffffffffffffffffffffffffffffffff1673ffffffffffffffffffffffffffffffffffffffff16815260200190815260200160002060008282546112959190611d96565b925050819055508273ffffffffffffffffffffffffffffffffffffffff168473ffffffffffffffffffffffffffffffffffffffff167fddf252ad1be2c89b69c2b068fc378daa952ba7f163c4a11628f55a4df523b3ef846040516112f99190611d44565b60405180910390a361130c84848461189c565b50505050565b600073ffffffffffffffffffffffffffffffffffffffff168373ffffffffffffffffffffffffffffffffffffffff161415611382576040517f08c379a000000000000000000000000000000000000000000000000000000000815260040161137990611cc4565b60405180910390fd5b600073ffffffffffffffffffffffffffffffffffffffff168273ffffffffffffffffffffffffffffffffffffffff1614156113f2576040517f08c379a00000000000000000000000000000000000000000000000000000000081526004016113e990611c44565b60405180910390fd5b6113fd838383611897565b60008060008573ffffffffffffffffffffffffffffffffffffffff1673ffffffffffffffffffffffffffffffffffffffff16815260200190815260200160002054905081811015611483576040517f08c379a000000000000000000000000000000000000000000000000000000000815260040161147a90611c84565b60405180910390fd5b8181036000808673ffffffffffffffffffffffffffffffffffffffff1673ffffffffffffffffffffffffffffffffffffffff1681526020019081526020016000208190555081600160008573ffffffffffffffffffffffffffffffffffffffff1673ffffffffffffffffffffffffffffffffffffffff16815260200190815260200160002060008282546115179190611d96565b9250508190555050505050565b600073ffffffffffffffffffffffffffffffffffffffff168373ffffffffffffffffffffffffffffffffffffffff161415611594576040517f08c379a000000000000000000000000000000000000000000000000000000000815260040161158b90611cc4565b60405180910390fd5b600073ffffffffffffffffffffffffffffffffffffffff168273ffffffffffffffffffffffffffffffffffffffff161415611604576040517f08c379a00000000000000000000000000000000000000000000000000000000081526004016115fb90611c44565b60405180910390fd5b61160f838383611897565b6000600160008573ffffffffffffffffffffffffffffffffffffffff1673ffffffffffffffffffffffffffffffffffffffff16815260200190815260200160002054905081811015611696576040517f08c379a000000000000000000000000000000000000000000000000000000000815260040161168d90611c84565b60405180910390fd5b818103600160008673ffffffffffffffffffffffffffffffffffffffff1673ffffffffffffffffffffffffffffffffffffffff16815260200190815260200160002081905550816000808573ffffffffffffffffffffffffffffffffffffffff1673ffffffffffffffffffffffffffffffffffffffff168152602001908152602001600020600082825461172a9190611d96565b9250508190555050505050565b600073ffffffffffffffffffffffffffffffffffffffff168273ffffffffffffffffffffffffffffffffffffffff1614156117a7576040517f08c379a000000000000000000000000000000000000000000000000000000000815260040161179e90611d24565b60405180910390fd5b6117b360008383611897565b80600360008282546117c59190611d96565b92505081905550806000808473ffffffffffffffffffffffffffffffffffffffff1673ffffffffffffffffffffffffffffffffffffffff168152602001908152602001600020600082825461181a9190611d96565b925050819055508173ffffffffffffffffffffffffffffffffffffffff16600073ffffffffffffffffffffffffffffffffffffffff167fddf252ad1be2c89b69c2b068fc378daa952ba7f163c4a11628f55a4df523b3ef8360405161187f9190611d44565b60405180910390a36118936000838361189c565b5050565b505050565b505050565b6000813590506118b08161216c565b92915050565b6000813590506118c581612183565b92915050565b6000602082840312156118e1576118e0611f04565b5b60006118ef848285016118a1565b91505092915050565b6000806040838503121561190f5761190e611f04565b5b600061191d858286016118a1565b925050602061192e858286016118a1565b9150509250929050565b6000806000806080858703121561195257611951611f04565b5b6000611960878288016118a1565b9450506020611971878288016118a1565b9350506040611982878288016118a1565b9250506060611993878288016118b6565b91505092959194509250565b6000806000606084860312156119b8576119b7611f04565b5b60006119c6868287016118a1565b93505060206119d7868287016118a1565b92505060406119e8868287016118b6565b9150509250925092565b60008060408385031215611a0957611a08611f04565b5b6000611a17858286016118a1565b9250506020611a28858286016118b6565b9150509250929050565b600060208284031215611a4857611a47611f04565b5b6000611a56848285016118b6565b91505092915050565b611a6881611dec565b82525050565b611a7781611dfe565b82525050565b6000611a8882611d7a565b611a928185611d85565b9350611aa2818560208601611e41565b611aab81611f09565b840191505092915050565b6000611ac3602383611d85565b9150611ace82611f1a565b604082019050919050565b6000611ae6602283611d85565b9150611af182611f69565b604082019050919050565b6000611b09602683611d85565b9150611b1482611fb8565b604082019050919050565b6000611b2c602883611d85565b9150611b3782612007565b604082019050919050565b6000611b4f602583611d85565b9150611b5a82612056565b604082019050919050565b6000611b72602483611d85565b9150611b7d826120a5565b604082019050919050565b6000611b95602583611d85565b9150611ba0826120f4565b604082019050919050565b6000611bb8601f83611d85565b9150611bc382612143565b602082019050919050565b611bd781611e2a565b82525050565b611be681611e34565b82525050565b6000602082019050611c016000830184611a5f565b92915050565b6000602082019050611c1c6000830184611a6e565b92915050565b60006020820190508181036000830152611c3c8184611a7d565b905092915050565b60006020820190508181036000830152611c5d81611ab6565b9050919050565b60006020820190508181036000830152611c7d81611ad9565b9050919050565b60006020820190508181036000830152611c9d81611afc565b9050919050565b60006020820190508181036000830152611cbd81611b1f565b9050919050565b60006020820190508181036000830152611cdd81611b42565b9050919050565b60006020820190508181036000830152611cfd81611b65565b9050919050565b60006020820190508181036000830152611d1d81611b88565b9050919050565b60006020820190508181036000830152611d3d81611bab565b9050919050565b6000602082019050611d596000830184611bce565b92915050565b6000602082019050611d746000830184611bdd565b92915050565b600081519050919050565b600082825260208201905092915050565b6000611da182611e2a565b9150611dac83611e2a565b9250827fffffffffffffffffffffffffffffffffffffffffffffffffffffffffffffffff03821115611de157611de0611ea6565b5b828201905092915050565b6000611df782611e0a565b9050919050565b60008115159050919050565b600073ffffffffffffffffffffffffffffffffffffffff82169050919050565b6000819050919050565b600060ff82169050919050565b60005b83811015611e5f578082015181840152602081019050611e44565b83811115611e6e576000848401525b50505050565b60006002820490506001821680611e8c57607f821691505b60208210811415611ea057611e9f611ed5565b5b50919050565b7f4e487b7100000000000000000000000000000000000000000000000000000000600052601160045260246000fd5b7f4e487b7100000000000000000000000000000000000000000000000000000000600052602260045260246000fd5b600080fd5b6000601f19601f8301169050919050565b7f45524332303a207472616e7366657220746f20746865207a65726f206164647260008201527f6573730000000000000000000000000000000000000000000000000000000000602082015250565b7f45524332303a20617070726f766520746f20746865207a65726f20616464726560008201527f7373000000000000000000000000000000000000000000000000000000000000602082015250565b7f45524332303a207472616e7366657220616d6f756e742065786365656473206260008201527f616c616e63650000000000000000000000000000000000000000000000000000602082015250565b7f45524332303a207472616e7366657220616d6f756e742065786365656473206160008201527f6c6c6f77616e6365000000000000000000000000000000000000000000000000602082015250565b7f45524332303a207472616e736665722066726f6d20746865207a65726f20616460008201527f6472657373000000000000000000000000000000000000000000000000000000602082015250565b7f45524332303a20617070726f76652066726f6d20746865207a65726f2061646460008201527f7265737300000000000000000000000000000000000000000000000000000000602082015250565b7f45524332303a2064656372656173656420616c6c6f77616e63652062656c6f7760008201527f207a65726f000000000000000000000000000000000000000000000000000000602082015250565b7f45524332303a206d696e7420746f20746865207a65726f206164647265737300600082015250565b61217581611dec565b811461218057600080fd5b50565b61218c81611e2a565b811461219757600080fd5b5056fea26469706673582212208f8baf9e917d41704dc253649867fff82564cb48ad1e9a1783c793e5cb18a89e64736f6c63430008070033",
  "linkReferences": {},
  "deployedLinkReferences": {}
}