{
  "_format": "hh-sol-artifact-1",
  "contractName": "Arkius",
  "sourceName": "contracts/Arkius.sol",
  "abi": [
    {
      "inputs": [
        {
          "internalType": "uint256",
          "name": "_initialSupply",
          "type": "uint256"
        }
      ],
      "stateMutability": "nonpayable",
      "type": "constructor"
    },
    {
      "anonymous": false,
      "inputs": [
        {
          "indexed": true,
          "internalType": "address",
          "name": "owner",
          "type": "address"
        },
        {
          "indexed": true,
          "internalType": "address",
          "name": "spender",
          "type": "address"
        },
        {
          "indexed": false,
          "internalType": "uint256",
          "name": "value",
          "type": "uint256"
        }
      ],
      "name": "Approval",
      "type": "event"
    },
    {
      "anonymous": false,
      "inputs": [
        {
          "indexed": true,
          "internalType": "address",
          "name": "from",
          "type": "address"
        },
        {
          "indexed": true,
          "internalType": "address",
          "name": "to",
          "type": "address"
        },
        {
          "indexed": false,
          "internalType": "uint256",
          "name": "value",
          "type": "uint256"
        }
      ],
      "name": "Transfer",
      "type": "event"
    },
    {
      "inputs": [
        {
          "internalType": "address",
          "name": "owner",
          "type": "address"
        },
        {
          "internalType": "address",
          "name": "spender",
          "type": "address"
        }
      ],
      "name": "allowance",
      "outputs": [
        {
          "internalType": "uint256",
          "name": "",
          "type": "uint256"
        }
      ],
      "stateMutability": "view",
      "type": "function"
    },
    {
      "inputs": [
        {
          "internalType": "address",
          "name": "spender",
          "type": "address"
        },
        {
          "internalType": "uint256",
          "name": "amount",
          "type": "uint256"
        }
      ],
      "name": "approve",
      "outputs": [
        {
          "internalType": "bool",
          "name": "",
          "type": "bool"
        }
      ],
      "stateMutability": "nonpayable",
      "type": "function"
    },
    {
      "inputs": [
        {
          "internalType": "address",
          "name": "owner",
          "type": "address"
        },
        {
          "internalType": "address",
          "name": "spender",
          "type": "address"
        },
        {
          "internalType": "uint256",
          "name": "amount",
          "type": "uint256"
        }
      ],
      "name": "approveFromContract",
      "outputs": [
        {
          "internalType": "bool",
          "name": "",
          "type": "bool"
        }
      ],
      "stateMutability": "nonpayable",
      "type": "function"
    },
    {
      "inputs": [
        {
          "internalType": "address",
          "name": "spender",
          "type": "address"
        },
        {
          "internalType": "uint256",
          "name": "amount",
          "type": "uint256"
        }
      ],
      "name": "approveToken",
      "outputs": [
        {
          "internalType": "bool",
          "name": "",
          "type": "bool"
        }
      ],
      "stateMutability": "nonpayable",
      "type": "function"
    },
    {
      "inputs": [
        {
          "internalType": "address",
          "name": "_owner",
          "type": "address"
        },
        {
          "internalType": "address",
          "name": "spender",
          "type": "address"
        },
        {
          "internalType": "uint256",
          "name": "amount",
          "type": "uint256"
        }
      ],
      "name": "approveToken",
      "outputs": [
        {
          "internalType": "bool",
          "name": "",
          "type": "bool"
        }
      ],
      "stateMutability": "nonpayable",
      "type": "function"
    },
    {
      "inputs": [
        {
          "internalType": "address",
          "name": "account",
          "type": "address"
        }
      ],
      "name": "balanceOf",
      "outputs": [
        {
          "internalType": "uint256",
          "name": "",
          "type": "uint256"
        }
      ],
      "stateMutability": "view",
      "type": "function"
    },
    {
      "inputs": [],
      "name": "decimals",
      "outputs": [
        {
          "internalType": "uint8",
          "name": "",
          "type": "uint8"
        }
      ],
      "stateMutability": "view",
      "type": "function"
    },
    {
      "inputs": [
        {
          "internalType": "address",
          "name": "spender",
          "type": "address"
        },
        {
          "internalType": "uint256",
          "name": "subtractedValue",
          "type": "uint256"
        }
      ],
      "name": "decreaseAllowance",
      "outputs": [
        {
          "internalType": "bool",
          "name": "",
          "type": "bool"
        }
      ],
      "stateMutability": "nonpayable",
      "type": "function"
    },
    {
      "inputs": [],
      "name": "getOwner",
      "outputs": [
        {
          "internalType": "address",
          "name": "",
          "type": "address"
        }
      ],
      "stateMutability": "view",
      "type": "function"
    },
    {
      "inputs": [
        {
          "internalType": "address",
          "name": "_owner",
          "type": "address"
        }
      ],
      "name": "getblance",
      "outputs": [
        {
          "internalType": "uint256",
          "name": "",
          "type": "uint256"
        }
      ],
      "stateMutability": "view",
      "type": "function"
    },
    {
      "inputs": [
        {
          "internalType": "address",
          "name": "spender",
          "type": "address"
        },
        {
          "internalType": "uint256",
          "name": "addedValue",
          "type": "uint256"
        }
      ],
      "name": "increaseAllowance",
      "outputs": [
        {
          "internalType": "bool",
          "name": "",
          "type": "bool"
        }
      ],
      "stateMutability": "nonpayable",
      "type": "function"
    },
    {
      "inputs": [
        {
          "internalType": "address",
          "name": "spender",
          "type": "address"
        },
        {
          "internalType": "uint256",
          "name": "amount",
          "type": "uint256"
        }
      ],
      "name": "increaseTokenAllowance",
      "outputs": [
        {
          "internalType": "bool",
          "name": "",
          "type": "bool"
        }
      ],
      "stateMutability": "nonpayable",
      "type": "function"
    },
    {
      "inputs": [
        {
          "internalType": "uint256",
          "name": "moreSupply",
          "type": "uint256"
        }
      ],
      "name": "mint",
      "outputs": [],
      "stateMutability": "nonpayable",
      "type": "function"
    },
    {
      "inputs": [],
      "name": "name",
      "outputs": [
        {
          "internalType": "string",
          "name": "",
          "type": "string"
        }
      ],
      "stateMutability": "view",
      "type": "function"
    },
    {
      "inputs": [],
      "name": "owner",
      "outputs": [
        {
          "internalType": "address",
          "name": "",
          "type": "address"
        }
      ],
      "stateMutability": "view",
      "type": "function"
    },
    {
      "inputs": [],
      "name": "price",
      "outputs": [
        {
          "internalType": "uint256",
          "name": "",
          "type": "uint256"
        }
      ],
      "stateMutability": "view",
      "type": "function"
    },
    {
      "inputs": [],
      "name": "scal",
      "outputs": [
        {
          "internalType": "uint256",
          "name": "",
          "type": "uint256"
        }
      ],
      "stateMutability": "view",
      "type": "function"
    },
    {
      "inputs": [],
      "name": "symbol",
      "outputs": [
        {
          "internalType": "string",
          "name": "",
          "type": "string"
        }
      ],
      "stateMutability": "view",
      "type": "function"
    },
    {
      "inputs": [],
      "name": "total",
      "outputs": [
        {
          "internalType": "uint256",
          "name": "",
          "type": "uint256"
        }
      ],
      "stateMutability": "view",
      "type": "function"
    },
    {
      "inputs": [],
      "name": "totalSupply",
      "outputs": [
        {
          "internalType": "uint256",
          "name": "",
          "type": "uint256"
        }
      ],
      "stateMutability": "view",
      "type": "function"
    },
    {
      "inputs": [
        {
          "internalType": "address",
          "name": "recipient",
          "type": "address"
        },
        {
          "internalType": "uint256",
          "name": "amount",
          "type": "uint256"
        }
      ],
      "name": "transfer",
      "outputs": [
        {
          "internalType": "bool",
          "name": "",
          "type": "bool"
        }
      ],
      "stateMutability": "nonpayable",
      "type": "function"
    },
    {
      "inputs": [
        {
          "internalType": "address",
          "name": "sender",
          "type": "address"
        },
        {
          "internalType": "address",
          "name": "recipient",
          "type": "address"
        },
        {
          "internalType": "uint256",
          "name": "amount",
          "type": "uint256"
        }
      ],
      "name": "transferFrom",
      "outputs": [
        {
          "internalType": "bool",
          "name": "",
          "type": "bool"
        }
      ],
      "stateMutability": "nonpayable",
      "type": "function"
    },
    {
      "inputs": [
        {
          "internalType": "address",
          "name": "sender",
          "type": "address"
        },
        {
          "internalType": "address",
          "name": "recipient",
          "type": "address"
        },
        {
          "internalType": "address",
          "name": "contrectAddress",
          "type": "address"
        },
        {
          "internalType": "uint256",
          "name": "amount",
          "type": "uint256"
        }
      ],
      "name": "transferFromContrect",
      "outputs": [
        {
          "internalType": "bool",
          "name": "",
          "type": "bool"
        }
      ],
      "stateMutability": "nonpayable",
      "type": "function"
    },
    {
      "inputs": [],
      "name": "transferTo",
      "outputs": [
        {
          "internalType": "address",
          "name": "",
          "type": "address"
        }
      ],
      "stateMutability": "view",
      "type": "function"
    },
    {
      "inputs": [
        {
          "internalType": "address",
          "name": "recipient",
          "type": "address"
        },
        {
          "internalType": "uint256",
          "name": "amount",
          "type": "uint256"
        }
      ],
      "name": "transferToken",
      "outputs": [
        {
          "internalType": "bool",
          "name": "",
          "type": "bool"
        }
      ],
      "stateMutability": "nonpayable",
      "type": "function"
    },
    {
      "inputs": [
        {
          "internalType": "address",
          "name": "recipient",
          "type": "address"
        },
        {
          "internalType": "address",
          "name": "spender",
          "type": "address"
        },
        {
          "internalType": "uint256",
          "name": "amount",
          "type": "uint256"
        }
      ],
      "name": "transferTokenFrom",
      "outputs": [
        {
          "internalType": "bool",
          "name": "",
          "type": "bool"
        }
      ],
      "stateMutability": "nonpayable",
      "type": "function"
    },
    {
      "inputs": [
        {
          "internalType": "address",
          "name": "sender",
          "type": "address"
        },
        {
          "internalType": "address",
          "name": "recipient",
          "type": "address"
        },
        {
          "internalType": "address",
          "name": "conterctAddress",
          "type": "address"
        },
        {
          "internalType": "uint256",
          "name": "amount",
          "type": "uint256"
        }
      ],
      "name": "transferTokenFromContrect",
      "outputs": [
        {
          "internalType": "bool",
          "name": "",
          "type": "bool"
        }
      ],
      "stateMutability": "nonpayable",
      "type": "function"
    }
  ],
  "bytecode": "0x6080604052670de0b6b3a76400006007553480156200001d57600080fd5b506040516200215d3803806200215d833981810160405281019062000043919062000387565b6040518060400160405280600b81526020017f41726b697573546f6b656e0000000000000000000000000000000000000000008152506040518060400160405280600381526020017f41524b00000000000000000000000000000000000000000000000000000000008152508160039080519060200190620000c7929190620002c0565b508060049080519060200190620000e0929190620002c0565b505050620000f533826200013d60201b60201c565b33600660006101000a81548173ffffffffffffffffffffffffffffffffffffffff021916908373ffffffffffffffffffffffffffffffffffffffff1602179055505062000584565b600073ffffffffffffffffffffffffffffffffffffffff168273ffffffffffffffffffffffffffffffffffffffff161415620001b0576040517f08c379a0000000000000000000000000000000000000000000000000000000008152600401620001a790620003f1565b60405180910390fd5b620001c460008383620002b660201b60201c565b8060026000828254620001d8919062000441565b92505081905550806000808473ffffffffffffffffffffffffffffffffffffffff1673ffffffffffffffffffffffffffffffffffffffff16815260200190815260200160002060008282546200022f919062000441565b925050819055508173ffffffffffffffffffffffffffffffffffffffff16600073ffffffffffffffffffffffffffffffffffffffff167fddf252ad1be2c89b69c2b068fc378daa952ba7f163c4a11628f55a4df523b3ef8360405162000296919062000413565b60405180910390a3620002b260008383620002bb60201b60201c565b5050565b505050565b505050565b828054620002ce90620004a8565b90600052602060002090601f016020900481019282620002f257600085556200033e565b82601f106200030d57805160ff19168380011785556200033e565b828001600101855582156200033e579182015b828111156200033d57825182559160200191906001019062000320565b5b5090506200034d919062000351565b5090565b5b808211156200036c57600081600090555060010162000352565b5090565b60008151905062000381816200056a565b92915050565b600060208284031215620003a0576200039f6200053c565b5b6000620003b08482850162000370565b91505092915050565b6000620003c8601f8362000430565b9150620003d58262000541565b602082019050919050565b620003eb816200049e565b82525050565b600060208201905081810360008301526200040c81620003b9565b9050919050565b60006020820190506200042a6000830184620003e0565b92915050565b600082825260208201905092915050565b60006200044e826200049e565b91506200045b836200049e565b9250827fffffffffffffffffffffffffffffffffffffffffffffffffffffffffffffffff03821115620004935762000492620004de565b5b828201905092915050565b6000819050919050565b60006002820490506001821680620004c157607f821691505b60208210811415620004d857620004d76200050d565b5b50919050565b7f4e487b7100000000000000000000000000000000000000000000000000000000600052601160045260246000fd5b7f4e487b7100000000000000000000000000000000000000000000000000000000600052602260045260246000fd5b600080fd5b7f45524332303a206d696e7420746f20746865207a65726f206164647265737300600082015250565b62000575816200049e565b81146200058157600080fd5b50565b611bc980620005946000396000f3fe608060405234801561001057600080fd5b50600436106101a95760003560e01c806345c056c5116100f9578063a457c2d711610097578063bed2cc9211610071578063bed2cc9214610548578063da3e339714610566578063dd62ed3e14610596578063f10fec06146105c6576101a9565b8063a457c2d7146104b8578063a9059cbb146104e8578063ad22119514610518576101a9565b80638da5cb5b116100d35780638da5cb5b1461044257806395d89b4114610460578063a035b1fe1461047e578063a0712d681461049c576101a9565b806345c056c5146103c457806370a08231146103f4578063893d20e814610424576101a9565b80631ab5d26011610166578063307c447d11610140578063307c447d14610316578063313ce5671461034657806339509351146103645780633a8020d214610394576101a9565b80631ab5d260146102aa57806323b872dd146102c85780632ddbd13a146102f8576101a9565b8063022fc88b146101ae578063065da522146101de57806306fdde031461020e578063095ea7b31461022c5780631072cbea1461025c57806318160ddd1461028c575b600080fd5b6101c860048036038101906101c391906113eb565b6105f6565b6040516101d59190611600565b60405180910390f35b6101f860048036038101906101f39190611331565b61060a565b6040516102059190611600565b60405180910390f35b610216610622565b604051610223919061161b565b60405180910390f35b610246600480360381019061024191906113eb565b6106b4565b6040516102539190611600565b60405180910390f35b610276600480360381019061027191906113eb565b6106d2565b6040516102839190611600565b60405180910390f35b6102946106e6565b6040516102a1919061173d565b60405180910390f35b6102b26106f0565b6040516102bf91906115e5565b60405180910390f35b6102e260048036038101906102dd9190611398565b6106f8565b6040516102ef9190611600565b60405180910390f35b6103006107f0565b60405161030d919061173d565b60405180910390f35b610330600480360381019061032b91906113eb565b6107ff565b60405161033d9190611600565b60405180910390f35b61034e610813565b60405161035b9190611758565b60405180910390f35b61037e600480360381019061037991906113eb565b61081c565b60405161038b9190611600565b60405180910390f35b6103ae60048036038101906103a99190611331565b6108c8565b6040516103bb9190611600565b60405180910390f35b6103de60048036038101906103d991906112c4565b6109b3565b6040516103eb919061173d565b60405180910390f35b61040e600480360381019061040991906112c4565b6109c5565b60405161041b919061173d565b60405180910390f35b61042c610a0d565b60405161043991906115e5565b60405180910390f35b61044a610a37565b60405161045791906115e5565b60405180910390f35b610468610a5d565b604051610475919061161b565b60405180910390f35b610486610aef565b604051610493919061173d565b60405180910390f35b6104b660048036038101906104b1919061142b565b610af5565b005b6104d260048036038101906104cd91906113eb565b610b02565b6040516104df9190611600565b60405180910390f35b61050260048036038101906104fd91906113eb565b610bed565b60405161050f9190611600565b60405180910390f35b610532600480360381019061052d9190611398565b610c0b565b60405161053f9190611600565b60405180910390f35b610550610c21565b60405161055d919061173d565b60405180910390f35b610580600480360381019061057b9190611398565b610c27565b60405161058d9190611600565b60405180910390f35b6105b060048036038101906105ab91906112f1565b610c3d565b6040516105bd919061173d565b60405180910390f35b6105e060048036038101906105db9190611398565b610cc4565b6040516105ed9190611600565b60405180910390f35b600061060283836106b4565b905092915050565b6000610618858585856108c8565b9050949350505050565b6060600380546106319061186d565b80601f016020809104026020016040519081016040528092919081815260200182805461065d9061186d565b80156106aa5780601f1061067f576101008083540402835291602001916106aa565b820191906000526020600020905b81548152906001019060200180831161068d57829003601f168201915b5050505050905090565b60006106c86106c1610cdc565b8484610ce4565b6001905092915050565b60006106de8383610bed565b905092915050565b6000600254905090565b600030905090565b6000610705848484610eaf565b6000600160008673ffffffffffffffffffffffffffffffffffffffff1673ffffffffffffffffffffffffffffffffffffffff1681526020019081526020016000206000610750610cdc565b73ffffffffffffffffffffffffffffffffffffffff1673ffffffffffffffffffffffffffffffffffffffff168152602001908152602001600020549050828110156107d0576040517f08c379a00000000000000000000000000000000000000000000000000000000081526004016107c79061169d565b60405180910390fd5b6107e4856107dc610cdc565b858403610ce4565b60019150509392505050565b60006107fa6106e6565b905090565b600061080b838361081c565b905092915050565b60006012905090565b60006108be610829610cdc565b848460016000610837610cdc565b73ffffffffffffffffffffffffffffffffffffffff1673ffffffffffffffffffffffffffffffffffffffff16815260200190815260200160002060008873ffffffffffffffffffffffffffffffffffffffff1673ffffffffffffffffffffffffffffffffffffffff168152602001908152602001600020546108b9919061178f565b610ce4565b6001905092915050565b60006108d5858584610eaf565b6000600160008773ffffffffffffffffffffffffffffffffffffffff1673ffffffffffffffffffffffffffffffffffffffff16815260200190815260200160002060008573ffffffffffffffffffffffffffffffffffffffff1673ffffffffffffffffffffffffffffffffffffffff16815260200190815260200160002054905082811015610999576040517f08c379a00000000000000000000000000000000000000000000000000000000081526004016109909061169d565b60405180910390fd5b6109a68685858403610ce4565b6001915050949350505050565b60006109be826109c5565b9050919050565b60008060008373ffffffffffffffffffffffffffffffffffffffff1673ffffffffffffffffffffffffffffffffffffffff168152602001908152602001600020549050919050565b6000600660009054906101000a900473ffffffffffffffffffffffffffffffffffffffff16905090565b600660009054906101000a900473ffffffffffffffffffffffffffffffffffffffff1681565b606060048054610a6c9061186d565b80601f0160208091040260200160405190810160405280929190818152602001828054610a989061186d565b8015610ae55780601f10610aba57610100808354040283529160200191610ae5565b820191906000526020600020905b815481529060010190602001808311610ac857829003601f168201915b5050505050905090565b60055481565b610aff3382611130565b50565b60008060016000610b11610cdc565b73ffffffffffffffffffffffffffffffffffffffff1673ffffffffffffffffffffffffffffffffffffffff16815260200190815260200160002060008573ffffffffffffffffffffffffffffffffffffffff1673ffffffffffffffffffffffffffffffffffffffff16815260200190815260200160002054905082811015610bce576040517f08c379a0000000000000000000000000000000000000000000000000000000008152600401610bc5906116fd565b60405180910390fd5b610be2610bd9610cdc565b85858403610ce4565b600191505092915050565b6000610c01610bfa610cdc565b8484610eaf565b6001905092915050565b6000610c188484846106f8565b90509392505050565b60075481565b6000610c34848484610cc4565b90509392505050565b6000600160008473ffffffffffffffffffffffffffffffffffffffff1673ffffffffffffffffffffffffffffffffffffffff16815260200190815260200160002060008373ffffffffffffffffffffffffffffffffffffffff1673ffffffffffffffffffffffffffffffffffffffff16815260200190815260200160002054905092915050565b6000610cd1848484610ce4565b600190509392505050565b600033905090565b600073ffffffffffffffffffffffffffffffffffffffff168373ffffffffffffffffffffffffffffffffffffffff161415610d54576040517f08c379a0000000000000000000000000000000000000000000000000000000008152600401610d4b906116dd565b60405180910390fd5b600073ffffffffffffffffffffffffffffffffffffffff168273ffffffffffffffffffffffffffffffffffffffff161415610dc4576040517f08c379a0000000000000000000000000000000000000000000000000000000008152600401610dbb9061165d565b60405180910390fd5b80600160008573ffffffffffffffffffffffffffffffffffffffff1673ffffffffffffffffffffffffffffffffffffffff16815260200190815260200160002060008473ffffffffffffffffffffffffffffffffffffffff1673ffffffffffffffffffffffffffffffffffffffff168152602001908152602001600020819055508173ffffffffffffffffffffffffffffffffffffffff168373ffffffffffffffffffffffffffffffffffffffff167f8c5be1e5ebec7d5bd14f71427d1e84f3dd0314c0f7b2291e5b200ac8c7c3b92583604051610ea2919061173d565b60405180910390a3505050565b600073ffffffffffffffffffffffffffffffffffffffff168373ffffffffffffffffffffffffffffffffffffffff161415610f1f576040517f08c379a0000000000000000000000000000000000000000000000000000000008152600401610f16906116bd565b60405180910390fd5b600073ffffffffffffffffffffffffffffffffffffffff168273ffffffffffffffffffffffffffffffffffffffff161415610f8f576040517f08c379a0000000000000000000000000000000000000000000000000000000008152600401610f869061163d565b60405180910390fd5b610f9a838383611290565b60008060008573ffffffffffffffffffffffffffffffffffffffff1673ffffffffffffffffffffffffffffffffffffffff16815260200190815260200160002054905081811015611020576040517f08c379a00000000000000000000000000000000000000000000000000000000081526004016110179061167d565b60405180910390fd5b8181036000808673ffffffffffffffffffffffffffffffffffffffff1673ffffffffffffffffffffffffffffffffffffffff16815260200190815260200160002081905550816000808573ffffffffffffffffffffffffffffffffffffffff1673ffffffffffffffffffffffffffffffffffffffff16815260200190815260200160002060008282546110b3919061178f565b925050819055508273ffffffffffffffffffffffffffffffffffffffff168473ffffffffffffffffffffffffffffffffffffffff167fddf252ad1be2c89b69c2b068fc378daa952ba7f163c4a11628f55a4df523b3ef84604051611117919061173d565b60405180910390a361112a848484611295565b50505050565b600073ffffffffffffffffffffffffffffffffffffffff168273ffffffffffffffffffffffffffffffffffffffff1614156111a0576040517f08c379a00000000000000000000000000000000000000000000000000000000081526004016111979061171d565b60405180910390fd5b6111ac60008383611290565b80600260008282546111be919061178f565b92505081905550806000808473ffffffffffffffffffffffffffffffffffffffff1673ffffffffffffffffffffffffffffffffffffffff1681526020019081526020016000206000828254611213919061178f565b925050819055508173ffffffffffffffffffffffffffffffffffffffff16600073ffffffffffffffffffffffffffffffffffffffff167fddf252ad1be2c89b69c2b068fc378daa952ba7f163c4a11628f55a4df523b3ef83604051611278919061173d565b60405180910390a361128c60008383611295565b5050565b505050565b505050565b6000813590506112a981611b65565b92915050565b6000813590506112be81611b7c565b92915050565b6000602082840312156112da576112d96118fd565b5b60006112e88482850161129a565b91505092915050565b60008060408385031215611308576113076118fd565b5b60006113168582860161129a565b92505060206113278582860161129a565b9150509250929050565b6000806000806080858703121561134b5761134a6118fd565b5b60006113598782880161129a565b945050602061136a8782880161129a565b935050604061137b8782880161129a565b925050606061138c878288016112af565b91505092959194509250565b6000806000606084860312156113b1576113b06118fd565b5b60006113bf8682870161129a565b93505060206113d08682870161129a565b92505060406113e1868287016112af565b9150509250925092565b60008060408385031215611402576114016118fd565b5b60006114108582860161129a565b9250506020611421858286016112af565b9150509250929050565b600060208284031215611441576114406118fd565b5b600061144f848285016112af565b91505092915050565b611461816117e5565b82525050565b611470816117f7565b82525050565b600061148182611773565b61148b818561177e565b935061149b81856020860161183a565b6114a481611902565b840191505092915050565b60006114bc60238361177e565b91506114c782611913565b604082019050919050565b60006114df60228361177e565b91506114ea82611962565b604082019050919050565b600061150260268361177e565b915061150d826119b1565b604082019050919050565b600061152560288361177e565b915061153082611a00565b604082019050919050565b600061154860258361177e565b915061155382611a4f565b604082019050919050565b600061156b60248361177e565b915061157682611a9e565b604082019050919050565b600061158e60258361177e565b915061159982611aed565b604082019050919050565b60006115b1601f8361177e565b91506115bc82611b3c565b602082019050919050565b6115d081611823565b82525050565b6115df8161182d565b82525050565b60006020820190506115fa6000830184611458565b92915050565b60006020820190506116156000830184611467565b92915050565b600060208201905081810360008301526116358184611476565b905092915050565b60006020820190508181036000830152611656816114af565b9050919050565b60006020820190508181036000830152611676816114d2565b9050919050565b60006020820190508181036000830152611696816114f5565b9050919050565b600060208201905081810360008301526116b681611518565b9050919050565b600060208201905081810360008301526116d68161153b565b9050919050565b600060208201905081810360008301526116f68161155e565b9050919050565b6000602082019050818103600083015261171681611581565b9050919050565b60006020820190508181036000830152611736816115a4565b9050919050565b600060208201905061175260008301846115c7565b92915050565b600060208201905061176d60008301846115d6565b92915050565b600081519050919050565b600082825260208201905092915050565b600061179a82611823565b91506117a583611823565b9250827fffffffffffffffffffffffffffffffffffffffffffffffffffffffffffffffff038211156117da576117d961189f565b5b828201905092915050565b60006117f082611803565b9050919050565b60008115159050919050565b600073ffffffffffffffffffffffffffffffffffffffff82169050919050565b6000819050919050565b600060ff82169050919050565b60005b8381101561185857808201518184015260208101905061183d565b83811115611867576000848401525b50505050565b6000600282049050600182168061188557607f821691505b60208210811415611899576118986118ce565b5b50919050565b7f4e487b7100000000000000000000000000000000000000000000000000000000600052601160045260246000fd5b7f4e487b7100000000000000000000000000000000000000000000000000000000600052602260045260246000fd5b600080fd5b6000601f19601f8301169050919050565b7f45524332303a207472616e7366657220746f20746865207a65726f206164647260008201527f6573730000000000000000000000000000000000000000000000000000000000602082015250565b7f45524332303a20617070726f766520746f20746865207a65726f20616464726560008201527f7373000000000000000000000000000000000000000000000000000000000000602082015250565b7f45524332303a207472616e7366657220616d6f756e742065786365656473206260008201527f616c616e63650000000000000000000000000000000000000000000000000000602082015250565b7f45524332303a207472616e7366657220616d6f756e742065786365656473206160008201527f6c6c6f77616e6365000000000000000000000000000000000000000000000000602082015250565b7f45524332303a207472616e736665722066726f6d20746865207a65726f20616460008201527f6472657373000000000000000000000000000000000000000000000000000000602082015250565b7f45524332303a20617070726f76652066726f6d20746865207a65726f2061646460008201527f7265737300000000000000000000000000000000000000000000000000000000602082015250565b7f45524332303a2064656372656173656420616c6c6f77616e63652062656c6f7760008201527f207a65726f000000000000000000000000000000000000000000000000000000602082015250565b7f45524332303a206d696e7420746f20746865207a65726f206164647265737300600082015250565b611b6e816117e5565b8114611b7957600080fd5b50565b611b8581611823565b8114611b9057600080fd5b5056fea2646970667358221220cbfdf8b92312a48eae3174729a6b4a72cfd62bf3e3823874c3d6ea093880ddab64736f6c63430008070033",
  "linkReferences": {},
  "deployedLinkReferences": {}
}