{
  "_format": "hh-sol-artifact-1",
  "contractName": "governance",
  "sourceName": "contracts/governance.sol",
  "abi": [
    {
      "anonymous": false,
      "inputs": [
        {
          "indexed": true,
          "internalType": "address",
          "name": "oldOwner",
          "type": "address"
        },
        {
          "indexed": true,
          "internalType": "address",
          "name": "newOwner",
          "type": "address"
        }
      ],
      "name": "OwnerSet",
      "type": "event"
    },
    {
      "inputs": [
        {
          "internalType": "uint256",
          "name": "amount",
          "type": "uint256"
        }
      ],
      "name": "AVAXforTokens",
      "outputs": [],
      "stateMutability": "nonpayable",
      "type": "function"
    },
    {
      "inputs": [
        {
          "internalType": "address",
          "name": "spender",
          "type": "address"
        },
        {
          "internalType": "uint256",
          "name": "amount",
          "type": "uint256"
        }
      ],
      "name": "approveToken",
      "outputs": [
        {
          "internalType": "bool",
          "name": "",
          "type": "bool"
        }
      ],
      "stateMutability": "nonpayable",
      "type": "function"
    },
    {
      "inputs": [
        {
          "internalType": "address",
          "name": "_user",
          "type": "address"
        }
      ],
      "name": "blackList",
      "outputs": [],
      "stateMutability": "nonpayable",
      "type": "function"
    },
    {
      "inputs": [
        {
          "internalType": "uint256",
          "name": "AVAX",
          "type": "uint256"
        }
      ],
      "name": "calculatPrice",
      "outputs": [
        {
          "internalType": "uint256",
          "name": "",
          "type": "uint256"
        }
      ],
      "stateMutability": "nonpayable",
      "type": "function"
    },
    {
      "inputs": [
        {
          "internalType": "address",
          "name": "newOwner",
          "type": "address"
        }
      ],
      "name": "changeOwner",
      "outputs": [],
      "stateMutability": "nonpayable",
      "type": "function"
    },
    {
      "inputs": [],
      "name": "get",
      "outputs": [
        {
          "internalType": "uint256",
          "name": "",
          "type": "uint256"
        }
      ],
      "stateMutability": "view",
      "type": "function"
    },
    {
      "inputs": [],
      "name": "getOwner",
      "outputs": [
        {
          "internalType": "address",
          "name": "",
          "type": "address"
        }
      ],
      "stateMutability": "view",
      "type": "function"
    },
    {
      "inputs": [],
      "name": "getToken",
      "outputs": [],
      "stateMutability": "payable",
      "type": "function"
    },
    {
      "inputs": [
        {
          "internalType": "address",
          "name": "userAddress",
          "type": "address"
        }
      ],
      "name": "getUnlockToken",
      "outputs": [
        {
          "internalType": "uint256",
          "name": "",
          "type": "uint256"
        }
      ],
      "stateMutability": "nonpayable",
      "type": "function"
    },
    {
      "inputs": [
        {
          "internalType": "address",
          "name": "owner",
          "type": "address"
        }
      ],
      "name": "getblance",
      "outputs": [
        {
          "internalType": "uint256",
          "name": "",
          "type": "uint256"
        }
      ],
      "stateMutability": "view",
      "type": "function"
    },
    {
      "inputs": [
        {
          "internalType": "address",
          "name": "_user",
          "type": "address"
        }
      ],
      "name": "removeFromBlacklist",
      "outputs": [],
      "stateMutability": "nonpayable",
      "type": "function"
    },
    {
      "inputs": [
        {
          "internalType": "uint256",
          "name": "token",
          "type": "uint256"
        }
      ],
      "name": "sellToken",
      "outputs": [],
      "stateMutability": "payable",
      "type": "function"
    },
    {
      "inputs": [
        {
          "internalType": "address",
          "name": "_addressToken",
          "type": "address"
        }
      ],
      "name": "setAddressToken",
      "outputs": [],
      "stateMutability": "nonpayable",
      "type": "function"
    },
    {
      "inputs": [
        {
          "internalType": "address",
          "name": "spender",
          "type": "address"
        },
        {
          "internalType": "uint256",
          "name": "amount",
          "type": "uint256"
        }
      ],
      "name": "tokenAllowance",
      "outputs": [
        {
          "internalType": "bool",
          "name": "",
          "type": "bool"
        }
      ],
      "stateMutability": "nonpayable",
      "type": "function"
    },
    {
      "inputs": [
        {
          "internalType": "address",
          "name": "sender",
          "type": "address"
        },
        {
          "internalType": "address",
          "name": "recipient",
          "type": "address"
        },
        {
          "internalType": "uint256",
          "name": "amount",
          "type": "uint256"
        }
      ],
      "name": "transferFromContrect",
      "outputs": [
        {
          "internalType": "bool",
          "name": "",
          "type": "bool"
        }
      ],
      "stateMutability": "nonpayable",
      "type": "function"
    },
    {
      "inputs": [
        {
          "internalType": "address",
          "name": "recipient",
          "type": "address"
        }
      ],
      "name": "transferTokanReword",
      "outputs": [
        {
          "internalType": "bool",
          "name": "",
          "type": "bool"
        }
      ],
      "stateMutability": "nonpayable",
      "type": "function"
    },
    {
      "inputs": [
        {
          "internalType": "address",
          "name": "recipient",
          "type": "address"
        },
        {
          "internalType": "address",
          "name": "spender",
          "type": "address"
        },
        {
          "internalType": "uint256",
          "name": "amount",
          "type": "uint256"
        }
      ],
      "name": "transferTokenFrom",
      "outputs": [
        {
          "internalType": "bool",
          "name": "",
          "type": "bool"
        }
      ],
      "stateMutability": "nonpayable",
      "type": "function"
    }
  ],
  "bytecode": "0x6080604052600a60025534801561001557600080fd5b50336000806101000a81548173ffffffffffffffffffffffffffffffffffffffff021916908373ffffffffffffffffffffffffffffffffffffffff16021790555060008054906101000a900473ffffffffffffffffffffffffffffffffffffffff1673ffffffffffffffffffffffffffffffffffffffff16600073ffffffffffffffffffffffffffffffffffffffff167f342827c97908e5e2f71151c08502a66d44b6f758e3ac2f1de95f02eb95f0a73560405160405180910390a3611904806100e06000396000f3fe6080604052600436106100fe5760003560e01c8063537df3b611610095578063893d20e811610064578063893d20e8146103295780638f121bff1461035457806398529b4714610391578063a6f9dae1146103ce578063ad221195146103f7576100fe565b8063537df3b61461026f5780636d4ce63c1461029857806372ed1c23146102c3578063762fac2814610300576100fe565b806328f64edd116100d157806328f64edd146101a357806342bf71e3146101e057806345c056c5146102095780634838d16514610246576100fe565b8063022fc88b1461010357806304f9f81e1461014057806321df0da71461017d5780632397e4d714610187575b600080fd5b34801561010f57600080fd5b5061012a6004803603810190610125919061135e565b610434565b60405161013791906115d6565b60405180910390f35b34801561014c57600080fd5b506101676004803603810190610162919061135e565b6104ef565b60405161017491906115d6565b60405180910390f35b6101856105a8565b005b6101a1600480360381019061019c91906113cb565b6105c3565b005b3480156101af57600080fd5b506101ca60048036038101906101c591906112de565b6106d2565b6040516101d791906115d6565b60405180910390f35b3480156101ec57600080fd5b50610207600480360381019061020291906113cb565b61078b565b005b34801561021557600080fd5b50610230600480360381019061022b91906112de565b610898565b60405161023d9190611671565b60405180910390f35b34801561025257600080fd5b5061026d600480360381019061026891906112de565b61094c565b005b34801561027b57600080fd5b50610296600480360381019061029191906112de565b610ac1565b005b3480156102a457600080fd5b506102ad610c36565b6040516102ba9190611671565b60405180910390f35b3480156102cf57600080fd5b506102ea60048036038101906102e5919061130b565b610d6a565b6040516102f791906115d6565b60405180910390f35b34801561030c57600080fd5b50610327600480360381019061032291906112de565b610e28565b005b34801561033557600080fd5b5061033e610ecf565b60405161034b91906114ed565b60405180910390f35b34801561036057600080fd5b5061037b600480360381019061037691906113cb565b610ef8565b6040516103889190611671565b60405180910390f35b34801561039d57600080fd5b506103b860048036038101906103b391906112de565b610f14565b6040516103c59190611671565b60405180910390f35b3480156103da57600080fd5b506103f560048036038101906103f091906112de565b610fca565b005b34801561040357600080fd5b5061041e6004803603810190610419919061130b565b611115565b60405161042b91906115d6565b60405180910390f35b6000600460009054906101000a900473ffffffffffffffffffffffffffffffffffffffff1673ffffffffffffffffffffffffffffffffffffffff1663da3e33973385856040518463ffffffff1660e01b81526004016104959392919061154d565b602060405180830381600087803b1580156104af57600080fd5b505af11580156104c3573d6000803e3d6000fd5b505050506040513d601f19601f820116820180604052508101906104e7919061139e565b905092915050565b6000600460009054906101000a900473ffffffffffffffffffffffffffffffffffffffff1673ffffffffffffffffffffffffffffffffffffffff1663022fc88b84846040518363ffffffff1660e01b815260040161054e9291906115ad565b602060405180830381600087803b15801561056857600080fd5b505af115801561057c573d6000803e3d6000fd5b505050506040513d601f19601f820116820180604052508101906105a0919061139e565b905092915050565b60006105b334610ef8565b90506105bf33826111d1565b5050565b6000600254826105d3919061169d565b9050600460009054906101000a900473ffffffffffffffffffffffffffffffffffffffff1673ffffffffffffffffffffffffffffffffffffffff166372862fc33330856040518463ffffffff1660e01b81526004016106349392919061154d565b602060405180830381600087803b15801561064e57600080fd5b505af1158015610662573d6000803e3d6000fd5b505050506040513d601f19601f82011682018060405250810190610686919061139e565b503373ffffffffffffffffffffffffffffffffffffffff166108fc829081150290604051600060405180830381858888f193505050501580156106cd573d6000803e3d6000fd5b505050565b6000600460009054906101000a900473ffffffffffffffffffffffffffffffffffffffff1673ffffffffffffffffffffffffffffffffffffffff16631072cbea8360056040518363ffffffff1660e01b8152600401610732929190611584565b602060405180830381600087803b15801561074c57600080fd5b505af1158015610760573d6000803e3d6000fd5b505050506040513d601f19601f82011682018060405250810190610784919061139e565b9050919050565b60006002548261079b919061169d565b9050600460009054906101000a900473ffffffffffffffffffffffffffffffffffffffff1673ffffffffffffffffffffffffffffffffffffffff1663a9059cbb30846040518363ffffffff1660e01b81526004016107fa9291906115ad565b602060405180830381600087803b15801561081457600080fd5b505af1158015610828573d6000803e3d6000fd5b505050506040513d601f19601f8201168201806040525081019061084c919061139e565b503373ffffffffffffffffffffffffffffffffffffffff166108fc829081150290604051600060405180830381858888f19350505050158015610893573d6000803e3d6000fd5b505050565b6000600460009054906101000a900473ffffffffffffffffffffffffffffffffffffffff1673ffffffffffffffffffffffffffffffffffffffff166345c056c5836040518263ffffffff1660e01b81526004016108f591906114ed565b60206040518083038186803b15801561090d57600080fd5b505afa158015610921573d6000803e3d6000fd5b505050506040513d601f19601f8201168201806040525081019061094591906113f8565b9050919050565b60008054906101000a900473ffffffffffffffffffffffffffffffffffffffff1673ffffffffffffffffffffffffffffffffffffffff163373ffffffffffffffffffffffffffffffffffffffff16146109da576040517f08c379a00000000000000000000000000000000000000000000000000000000081526004016109d1906115f1565b60405180910390fd5b600160008273ffffffffffffffffffffffffffffffffffffffff1673ffffffffffffffffffffffffffffffffffffffff16815260200190815260200160002060009054906101000a900460ff1615610a67576040517f08c379a0000000000000000000000000000000000000000000000000000000008152600401610a5e90611611565b60405180910390fd5b60018060008373ffffffffffffffffffffffffffffffffffffffff1673ffffffffffffffffffffffffffffffffffffffff16815260200190815260200160002060006101000a81548160ff02191690831515021790555050565b60008054906101000a900473ffffffffffffffffffffffffffffffffffffffff1673ffffffffffffffffffffffffffffffffffffffff163373ffffffffffffffffffffffffffffffffffffffff1614610b4f576040517f08c379a0000000000000000000000000000000000000000000000000000000008152600401610b46906115f1565b60405180910390fd5b600160008273ffffffffffffffffffffffffffffffffffffffff1673ffffffffffffffffffffffffffffffffffffffff16815260200190815260200160002060009054906101000a900460ff16610bdb576040517f08c379a0000000000000000000000000000000000000000000000000000000008152600401610bd290611631565b60405180910390fd5b6000600160008373ffffffffffffffffffffffffffffffffffffffff1673ffffffffffffffffffffffffffffffffffffffff16815260200190815260200160002060006101000a81548160ff02191690831515021790555050565b6000600160003373ffffffffffffffffffffffffffffffffffffffff1673ffffffffffffffffffffffffffffffffffffffff16815260200190815260200160002060009054906101000a900460ff1615610cc5576040517f08c379a0000000000000000000000000000000000000000000000000000000008152600401610cbc90611651565b60405180910390fd5b600460009054906101000a900473ffffffffffffffffffffffffffffffffffffffff1673ffffffffffffffffffffffffffffffffffffffff16632ddbd13a6040518163ffffffff1660e01b815260040160206040518083038186803b158015610d2d57600080fd5b505afa158015610d41573d6000803e3d6000fd5b505050506040513d601f19601f82011682018060405250810190610d6591906113f8565b905090565b6000600460009054906101000a900473ffffffffffffffffffffffffffffffffffffffff1673ffffffffffffffffffffffffffffffffffffffff1663065da522858530866040518563ffffffff1660e01b8152600401610dcd9493929190611508565b602060405180830381600087803b158015610de757600080fd5b505af1158015610dfb573d6000803e3d6000fd5b505050506040513d601f19601f82011682018060405250810190610e1f919061139e565b90509392505050565b80600360006101000a81548173ffffffffffffffffffffffffffffffffffffffff021916908373ffffffffffffffffffffffffffffffffffffffff160217905550600360009054906101000a900473ffffffffffffffffffffffffffffffffffffffff16600460006101000a81548173ffffffffffffffffffffffffffffffffffffffff021916908373ffffffffffffffffffffffffffffffffffffffff16021790555050565b60008060009054906101000a900473ffffffffffffffffffffffffffffffffffffffff16905090565b60008060025483610f0991906116ce565b905080915050919050565b6000600460009054906101000a900473ffffffffffffffffffffffffffffffffffffffff1673ffffffffffffffffffffffffffffffffffffffff1663fd9b853d836040518263ffffffff1660e01b8152600401610f7191906114ed565b602060405180830381600087803b158015610f8b57600080fd5b505af1158015610f9f573d6000803e3d6000fd5b505050506040513d601f19601f82011682018060405250810190610fc391906113f8565b9050919050565b60008054906101000a900473ffffffffffffffffffffffffffffffffffffffff1673ffffffffffffffffffffffffffffffffffffffff163373ffffffffffffffffffffffffffffffffffffffff1614611058576040517f08c379a000000000000000000000000000000000000000000000000000000000815260040161104f906115f1565b60405180910390fd5b8073ffffffffffffffffffffffffffffffffffffffff1660008054906101000a900473ffffffffffffffffffffffffffffffffffffffff1673ffffffffffffffffffffffffffffffffffffffff167f342827c97908e5e2f71151c08502a66d44b6f758e3ac2f1de95f02eb95f0a73560405160405180910390a3806000806101000a81548173ffffffffffffffffffffffffffffffffffffffff021916908373ffffffffffffffffffffffffffffffffffffffff16021790555050565b6000600460009054906101000a900473ffffffffffffffffffffffffffffffffffffffff1673ffffffffffffffffffffffffffffffffffffffff1663ad2211958585856040518463ffffffff1660e01b81526004016111769392919061154d565b602060405180830381600087803b15801561119057600080fd5b505af11580156111a4573d6000803e3d6000fd5b505050506040513d601f19601f820116820180604052508101906111c8919061139e565b90509392505050565b6000600460009054906101000a900473ffffffffffffffffffffffffffffffffffffffff1673ffffffffffffffffffffffffffffffffffffffff16631072cbea84846040518363ffffffff1660e01b81526004016112309291906115ad565b602060405180830381600087803b15801561124a57600080fd5b505af115801561125e573d6000803e3d6000fd5b505050506040513d601f19601f82011682018060405250810190611282919061139e565b905092915050565b60008135905061129981611889565b92915050565b6000815190506112ae816118a0565b92915050565b6000813590506112c3816118b7565b92915050565b6000815190506112d8816118b7565b92915050565b6000602082840312156112f4576112f36117e0565b5b60006113028482850161128a565b91505092915050565b600080600060608486031215611324576113236117e0565b5b60006113328682870161128a565b93505060206113438682870161128a565b9250506040611354868287016112b4565b9150509250925092565b60008060408385031215611375576113746117e0565b5b60006113838582860161128a565b9250506020611394858286016112b4565b9150509250929050565b6000602082840312156113b4576113b36117e0565b5b60006113c28482850161129f565b91505092915050565b6000602082840312156113e1576113e06117e0565b5b60006113ef848285016112b4565b91505092915050565b60006020828403121561140e5761140d6117e0565b5b600061141c848285016112c9565b91505092915050565b61142e81611728565b82525050565b61143d8161173a565b82525050565b61144c81611770565b82525050565b600061145f60138361168c565b915061146a826117e5565b602082019050919050565b600061148260188361168c565b915061148d8261180e565b602082019050919050565b60006114a560188361168c565b91506114b082611837565b602082019050919050565b60006114c860178361168c565b91506114d382611860565b602082019050919050565b6114e781611766565b82525050565b60006020820190506115026000830184611425565b92915050565b600060808201905061151d6000830187611425565b61152a6020830186611425565b6115376040830185611425565b61154460608301846114de565b95945050505050565b60006060820190506115626000830186611425565b61156f6020830185611425565b61157c60408301846114de565b949350505050565b60006040820190506115996000830185611425565b6115a66020830184611443565b9392505050565b60006040820190506115c26000830185611425565b6115cf60208301846114de565b9392505050565b60006020820190506115eb6000830184611434565b92915050565b6000602082019050818103600083015261160a81611452565b9050919050565b6000602082019050818103600083015261162a81611475565b9050919050565b6000602082019050818103600083015261164a81611498565b9050919050565b6000602082019050818103600083015261166a816114bb565b9050919050565b600060208201905061168660008301846114de565b92915050565b600082825260208201905092915050565b60006116a882611766565b91506116b383611766565b9250826116c3576116c26117b1565b5b828204905092915050565b60006116d982611766565b91506116e483611766565b9250817fffffffffffffffffffffffffffffffffffffffffffffffffffffffffffffffff048311821515161561171d5761171c611782565b5b828202905092915050565b600061173382611746565b9050919050565b60008115159050919050565b600073ffffffffffffffffffffffffffffffffffffffff82169050919050565b6000819050919050565b600061177b82611766565b9050919050565b7f4e487b7100000000000000000000000000000000000000000000000000000000600052601160045260246000fd5b7f4e487b7100000000000000000000000000000000000000000000000000000000600052601260045260246000fd5b600080fd5b7f43616c6c6572206973206e6f74206f776e657200000000000000000000000000600082015250565b7f7573657220616c726561647920626c61636b6c69737465640000000000000000600082015250565b7f7573657220616c72656164792077686974656c69737465640000000000000000600082015250565b7f526563697069656e74206973206261636b6c6973746564000000000000000000600082015250565b61189281611728565b811461189d57600080fd5b50565b6118a98161173a565b81146118b457600080fd5b50565b6118c081611766565b81146118cb57600080fd5b5056fea26469706673582212205aba9b1a89ce6f8b938b8a9329316c49e2378036d9d08f7b54dfe66c8bad005464736f6c63430008070033",
  "linkReferences": {},
  "deployedLinkReferences": {}
}