{
  "_format": "hh-sol-artifact-1",
  "contractName": "governance",
  "sourceName": "contracts/governance.sol",
  "abi": [
    {
      "anonymous": false,
      "inputs": [
        {
          "indexed": true,
          "internalType": "address",
          "name": "oldOwner",
          "type": "address"
        },
        {
          "indexed": true,
          "internalType": "address",
          "name": "newOwner",
          "type": "address"
        }
      ],
      "name": "OwnerSet",
      "type": "event"
    },
    {
      "inputs": [
        {
          "internalType": "address",
          "name": "spender",
          "type": "address"
        },
        {
          "internalType": "uint256",
          "name": "amount",
          "type": "uint256"
        }
      ],
      "name": "approveToken",
      "outputs": [
        {
          "internalType": "bool",
          "name": "",
          "type": "bool"
        }
      ],
      "stateMutability": "nonpayable",
      "type": "function"
    },
    {
      "inputs": [
        {
          "internalType": "address",
          "name": "_user",
          "type": "address"
        }
      ],
      "name": "blackList",
      "outputs": [],
      "stateMutability": "nonpayable",
      "type": "function"
    },
    {
      "inputs": [
        {
          "internalType": "uint256",
          "name": "AVAX",
          "type": "uint256"
        }
      ],
      "name": "calculatPrice",
      "outputs": [
        {
          "internalType": "uint256",
          "name": "",
          "type": "uint256"
        }
      ],
      "stateMutability": "nonpayable",
      "type": "function"
    },
    {
      "inputs": [
        {
          "internalType": "address",
          "name": "newOwner",
          "type": "address"
        }
      ],
      "name": "changeOwner",
      "outputs": [],
      "stateMutability": "nonpayable",
      "type": "function"
    },
    {
      "inputs": [],
      "name": "get",
      "outputs": [
        {
          "internalType": "uint256",
          "name": "",
          "type": "uint256"
        }
      ],
      "stateMutability": "view",
      "type": "function"
    },
    {
      "inputs": [],
      "name": "getOwner",
      "outputs": [
        {
          "internalType": "address",
          "name": "",
          "type": "address"
        }
      ],
      "stateMutability": "view",
      "type": "function"
    },
    {
      "inputs": [],
      "name": "getToken",
      "outputs": [],
      "stateMutability": "payable",
      "type": "function"
    },
    {
      "inputs": [
        {
          "internalType": "address",
          "name": "owner",
          "type": "address"
        }
      ],
      "name": "getblance",
      "outputs": [
        {
          "internalType": "uint256",
          "name": "",
          "type": "uint256"
        }
      ],
      "stateMutability": "view",
      "type": "function"
    },
    {
      "inputs": [
        {
          "internalType": "address",
          "name": "_user",
          "type": "address"
        }
      ],
      "name": "removeFromBlacklist",
      "outputs": [],
      "stateMutability": "nonpayable",
      "type": "function"
    },
    {
      "inputs": [
        {
          "internalType": "address",
          "name": "_addressToken",
          "type": "address"
        }
      ],
      "name": "setAddressToken",
      "outputs": [],
      "stateMutability": "nonpayable",
      "type": "function"
    },
    {
      "inputs": [
        {
          "internalType": "address",
          "name": "spender",
          "type": "address"
        },
        {
          "internalType": "uint256",
          "name": "amount",
          "type": "uint256"
        }
      ],
      "name": "tokenAllowance",
      "outputs": [
        {
          "internalType": "bool",
          "name": "",
          "type": "bool"
        }
      ],
      "stateMutability": "nonpayable",
      "type": "function"
    },
    {
      "inputs": [
        {
          "internalType": "address",
          "name": "sender",
          "type": "address"
        },
        {
          "internalType": "address",
          "name": "recipient",
          "type": "address"
        },
        {
          "internalType": "uint256",
          "name": "amount",
          "type": "uint256"
        }
      ],
      "name": "transferFromContrect",
      "outputs": [
        {
          "internalType": "bool",
          "name": "",
          "type": "bool"
        }
      ],
      "stateMutability": "nonpayable",
      "type": "function"
    },
    {
      "inputs": [
        {
          "internalType": "address",
          "name": "recipient",
          "type": "address"
        }
      ],
      "name": "transferTokanReword",
      "outputs": [
        {
          "internalType": "bool",
          "name": "",
          "type": "bool"
        }
      ],
      "stateMutability": "nonpayable",
      "type": "function"
    },
    {
      "inputs": [
        {
          "internalType": "address",
          "name": "recipient",
          "type": "address"
        },
        {
          "internalType": "address",
          "name": "spender",
          "type": "address"
        },
        {
          "internalType": "uint256",
          "name": "amount",
          "type": "uint256"
        }
      ],
      "name": "transferTokenFrom",
      "outputs": [
        {
          "internalType": "bool",
          "name": "",
          "type": "bool"
        }
      ],
      "stateMutability": "nonpayable",
      "type": "function"
    }
  ],
  "bytecode": "0x60806040526103e860025534801561001657600080fd5b50336000806101000a81548173ffffffffffffffffffffffffffffffffffffffff021916908373ffffffffffffffffffffffffffffffffffffffff16021790555060008054906101000a900473ffffffffffffffffffffffffffffffffffffffff1673ffffffffffffffffffffffffffffffffffffffff16600073ffffffffffffffffffffffffffffffffffffffff167f342827c97908e5e2f71151c08502a66d44b6f758e3ac2f1de95f02eb95f0a73560405160405180910390a361152f806100e16000396000f3fe6080604052600436106100dd5760003560e01c80636d4ce63c1161007f578063893d20e811610059578063893d20e8146102c35780638f121bff146102ee578063a6f9dae11461032b578063ad22119514610354576100dd565b80636d4ce63c1461023257806372ed1c231461025d578063762fac281461029a576100dd565b806328f64edd116100bb57806328f64edd1461016657806345c056c5146101a35780634838d165146101e0578063537df3b614610209576100dd565b8063022fc88b146100e257806304f9f81e1461011f57806321df0da71461015c575b600080fd5b3480156100ee57600080fd5b5061010960048036038101906101049190610fe9565b610391565b6040516101169190611261565b60405180910390f35b34801561012b57600080fd5b5061014660048036038101906101419190610fe9565b61044c565b6040516101539190611261565b60405180910390f35b610164610505565b005b34801561017257600080fd5b5061018d60048036038101906101889190610f69565b610520565b60405161019a9190611261565b60405180910390f35b3480156101af57600080fd5b506101ca60048036038101906101c59190610f69565b6105d9565b6040516101d791906112fc565b60405180910390f35b3480156101ec57600080fd5b5061020760048036038101906102029190610f69565b61068d565b005b34801561021557600080fd5b50610230600480360381019061022b9190610f69565b610802565b005b34801561023e57600080fd5b50610247610977565b60405161025491906112fc565b60405180910390f35b34801561026957600080fd5b50610284600480360381019061027f9190610f96565b610aab565b6040516102919190611261565b60405180910390f35b3480156102a657600080fd5b506102c160048036038101906102bc9190610f69565b610b69565b005b3480156102cf57600080fd5b506102d8610c10565b6040516102e59190611178565b60405180910390f35b3480156102fa57600080fd5b5061031560048036038101906103109190611056565b610c39565b60405161032291906112fc565b60405180910390f35b34801561033757600080fd5b50610352600480360381019061034d9190610f69565b610c55565b005b34801561036057600080fd5b5061037b60048036038101906103769190610f96565b610da0565b6040516103889190611261565b60405180910390f35b6000600460009054906101000a900473ffffffffffffffffffffffffffffffffffffffff1673ffffffffffffffffffffffffffffffffffffffff1663da3e33973385856040518463ffffffff1660e01b81526004016103f2939291906111d8565b602060405180830381600087803b15801561040c57600080fd5b505af1158015610420573d6000803e3d6000fd5b505050506040513d601f19601f820116820180604052508101906104449190611029565b905092915050565b6000600460009054906101000a900473ffffffffffffffffffffffffffffffffffffffff1673ffffffffffffffffffffffffffffffffffffffff1663022fc88b84846040518363ffffffff1660e01b81526004016104ab929190611238565b602060405180830381600087803b1580156104c557600080fd5b505af11580156104d9573d6000803e3d6000fd5b505050506040513d601f19601f820116820180604052508101906104fd9190611029565b905092915050565b600061051034610c39565b905061051c3382610e5c565b5050565b6000600460009054906101000a900473ffffffffffffffffffffffffffffffffffffffff1673ffffffffffffffffffffffffffffffffffffffff16631072cbea8360056040518363ffffffff1660e01b815260040161058092919061120f565b602060405180830381600087803b15801561059a57600080fd5b505af11580156105ae573d6000803e3d6000fd5b505050506040513d601f19601f820116820180604052508101906105d29190611029565b9050919050565b6000600460009054906101000a900473ffffffffffffffffffffffffffffffffffffffff1673ffffffffffffffffffffffffffffffffffffffff166345c056c5836040518263ffffffff1660e01b81526004016106369190611178565b60206040518083038186803b15801561064e57600080fd5b505afa158015610662573d6000803e3d6000fd5b505050506040513d601f19601f820116820180604052508101906106869190611083565b9050919050565b60008054906101000a900473ffffffffffffffffffffffffffffffffffffffff1673ffffffffffffffffffffffffffffffffffffffff163373ffffffffffffffffffffffffffffffffffffffff161461071b576040517f08c379a00000000000000000000000000000000000000000000000000000000081526004016107129061127c565b60405180910390fd5b600160008273ffffffffffffffffffffffffffffffffffffffff1673ffffffffffffffffffffffffffffffffffffffff16815260200190815260200160002060009054906101000a900460ff16156107a8576040517f08c379a000000000000000000000000000000000000000000000000000000000815260040161079f9061129c565b60405180910390fd5b60018060008373ffffffffffffffffffffffffffffffffffffffff1673ffffffffffffffffffffffffffffffffffffffff16815260200190815260200160002060006101000a81548160ff02191690831515021790555050565b60008054906101000a900473ffffffffffffffffffffffffffffffffffffffff1673ffffffffffffffffffffffffffffffffffffffff163373ffffffffffffffffffffffffffffffffffffffff1614610890576040517f08c379a00000000000000000000000000000000000000000000000000000000081526004016108879061127c565b60405180910390fd5b600160008273ffffffffffffffffffffffffffffffffffffffff1673ffffffffffffffffffffffffffffffffffffffff16815260200190815260200160002060009054906101000a900460ff1661091c576040517f08c379a0000000000000000000000000000000000000000000000000000000008152600401610913906112bc565b60405180910390fd5b6000600160008373ffffffffffffffffffffffffffffffffffffffff1673ffffffffffffffffffffffffffffffffffffffff16815260200190815260200160002060006101000a81548160ff02191690831515021790555050565b6000600160003373ffffffffffffffffffffffffffffffffffffffff1673ffffffffffffffffffffffffffffffffffffffff16815260200190815260200160002060009054906101000a900460ff1615610a06576040517f08c379a00000000000000000000000000000000000000000000000000000000081526004016109fd906112dc565b60405180910390fd5b600460009054906101000a900473ffffffffffffffffffffffffffffffffffffffff1673ffffffffffffffffffffffffffffffffffffffff16632ddbd13a6040518163ffffffff1660e01b815260040160206040518083038186803b158015610a6e57600080fd5b505afa158015610a82573d6000803e3d6000fd5b505050506040513d601f19601f82011682018060405250810190610aa69190611083565b905090565b6000600460009054906101000a900473ffffffffffffffffffffffffffffffffffffffff1673ffffffffffffffffffffffffffffffffffffffff1663065da522858530866040518563ffffffff1660e01b8152600401610b0e9493929190611193565b602060405180830381600087803b158015610b2857600080fd5b505af1158015610b3c573d6000803e3d6000fd5b505050506040513d601f19601f82011682018060405250810190610b609190611029565b90509392505050565b80600360006101000a81548173ffffffffffffffffffffffffffffffffffffffff021916908373ffffffffffffffffffffffffffffffffffffffff160217905550600360009054906101000a900473ffffffffffffffffffffffffffffffffffffffff16600460006101000a81548173ffffffffffffffffffffffffffffffffffffffff021916908373ffffffffffffffffffffffffffffffffffffffff16021790555050565b60008060009054906101000a900473ffffffffffffffffffffffffffffffffffffffff16905090565b60008060025483610c4a9190611328565b905080915050919050565b60008054906101000a900473ffffffffffffffffffffffffffffffffffffffff1673ffffffffffffffffffffffffffffffffffffffff163373ffffffffffffffffffffffffffffffffffffffff1614610ce3576040517f08c379a0000000000000000000000000000000000000000000000000000000008152600401610cda9061127c565b60405180910390fd5b8073ffffffffffffffffffffffffffffffffffffffff1660008054906101000a900473ffffffffffffffffffffffffffffffffffffffff1673ffffffffffffffffffffffffffffffffffffffff167f342827c97908e5e2f71151c08502a66d44b6f758e3ac2f1de95f02eb95f0a73560405160405180910390a3806000806101000a81548173ffffffffffffffffffffffffffffffffffffffff021916908373ffffffffffffffffffffffffffffffffffffffff16021790555050565b6000600460009054906101000a900473ffffffffffffffffffffffffffffffffffffffff1673ffffffffffffffffffffffffffffffffffffffff1663ad2211958585856040518463ffffffff1660e01b8152600401610e01939291906111d8565b602060405180830381600087803b158015610e1b57600080fd5b505af1158015610e2f573d6000803e3d6000fd5b505050506040513d601f19601f82011682018060405250810190610e539190611029565b90509392505050565b6000600460009054906101000a900473ffffffffffffffffffffffffffffffffffffffff1673ffffffffffffffffffffffffffffffffffffffff16631072cbea84846040518363ffffffff1660e01b8152600401610ebb929190611238565b602060405180830381600087803b158015610ed557600080fd5b505af1158015610ee9573d6000803e3d6000fd5b505050506040513d601f19601f82011682018060405250810190610f0d9190611029565b905092915050565b600081359050610f24816114b4565b92915050565b600081519050610f39816114cb565b92915050565b600081359050610f4e816114e2565b92915050565b600081519050610f63816114e2565b92915050565b600060208284031215610f7f57610f7e61140b565b5b6000610f8d84828501610f15565b91505092915050565b600080600060608486031215610faf57610fae61140b565b5b6000610fbd86828701610f15565b9350506020610fce86828701610f15565b9250506040610fdf86828701610f3f565b9150509250925092565b6000806040838503121561100057610fff61140b565b5b600061100e85828601610f15565b925050602061101f85828601610f3f565b9150509250929050565b60006020828403121561103f5761103e61140b565b5b600061104d84828501610f2a565b91505092915050565b60006020828403121561106c5761106b61140b565b5b600061107a84828501610f3f565b91505092915050565b6000602082840312156110995761109861140b565b5b60006110a784828501610f54565b91505092915050565b6110b981611382565b82525050565b6110c881611394565b82525050565b6110d7816113ca565b82525050565b60006110ea601383611317565b91506110f582611410565b602082019050919050565b600061110d601883611317565b915061111882611439565b602082019050919050565b6000611130601883611317565b915061113b82611462565b602082019050919050565b6000611153601783611317565b915061115e8261148b565b602082019050919050565b611172816113c0565b82525050565b600060208201905061118d60008301846110b0565b92915050565b60006080820190506111a860008301876110b0565b6111b560208301866110b0565b6111c260408301856110b0565b6111cf6060830184611169565b95945050505050565b60006060820190506111ed60008301866110b0565b6111fa60208301856110b0565b6112076040830184611169565b949350505050565b600060408201905061122460008301856110b0565b61123160208301846110ce565b9392505050565b600060408201905061124d60008301856110b0565b61125a6020830184611169565b9392505050565b600060208201905061127660008301846110bf565b92915050565b60006020820190508181036000830152611295816110dd565b9050919050565b600060208201905081810360008301526112b581611100565b9050919050565b600060208201905081810360008301526112d581611123565b9050919050565b600060208201905081810360008301526112f581611146565b9050919050565b60006020820190506113116000830184611169565b92915050565b600082825260208201905092915050565b6000611333826113c0565b915061133e836113c0565b9250817fffffffffffffffffffffffffffffffffffffffffffffffffffffffffffffffff0483118215151615611377576113766113dc565b5b828202905092915050565b600061138d826113a0565b9050919050565b60008115159050919050565b600073ffffffffffffffffffffffffffffffffffffffff82169050919050565b6000819050919050565b60006113d5826113c0565b9050919050565b7f4e487b7100000000000000000000000000000000000000000000000000000000600052601160045260246000fd5b600080fd5b7f43616c6c6572206973206e6f74206f776e657200000000000000000000000000600082015250565b7f7573657220616c726561647920626c61636b6c69737465640000000000000000600082015250565b7f7573657220616c72656164792077686974656c69737465640000000000000000600082015250565b7f526563697069656e74206973206261636b6c6973746564000000000000000000600082015250565b6114bd81611382565b81146114c857600080fd5b50565b6114d481611394565b81146114df57600080fd5b50565b6114eb816113c0565b81146114f657600080fd5b5056fea2646970667358221220c3366ed7451ae68dc75d60038b93c2e47b4eb0788b57087c112bf539982dbb8d64736f6c63430008070033",
  "linkReferences": {},
  "deployedLinkReferences": {}
}